{
  "_format": "hh-sol-artifact-1",
  "contractName": "EcommerceDelivery",
  "sourceName": "contracts/EcommerceDelivery.sol",
  "abi": [
    {
      "anonymous": false,
      "inputs": [
        {
          "indexed": false,
          "internalType": "uint256",
          "name": "orderId",
          "type": "uint256"
        },
        {
          "indexed": false,
          "internalType": "uint256",
          "name": "specifiedDeliveryTime",
          "type": "uint256"
        }
      ],
      "name": "DeliveryDateSpecified",
      "type": "event"
    },
    {
      "anonymous": false,
      "inputs": [
        {
          "indexed": false,
          "internalType": "uint256",
          "name": "orderId",
          "type": "uint256"
        }
      ],
      "name": "OrderCancelled",
      "type": "event"
    },
    {
      "anonymous": false,
      "inputs": [
        {
          "indexed": false,
          "internalType": "uint256",
          "name": "orderId",
          "type": "uint256"
        },
        {
          "indexed": false,
          "internalType": "address",
          "name": "consumer",
          "type": "address"
        },
        {
          "indexed": false,
          "internalType": "address",
          "name": "producer",
          "type": "address"
        },
        {
          "indexed": false,
          "internalType": "uint256",
          "name": "productId",
          "type": "uint256"
        },
        {
          "indexed": false,
          "internalType": "uint256",
          "name": "purchaseTime",
          "type": "uint256"
        }
      ],
      "name": "OrderCreated",
      "type": "event"
    },
    {
      "anonymous": false,
      "inputs": [
        {
          "indexed": false,
          "internalType": "uint256",
          "name": "orderId",
          "type": "uint256"
        },
        {
          "indexed": false,
          "internalType": "uint256",
          "name": "deliveryTime",
          "type": "uint256"
        }
      ],
      "name": "OrderDelivered",
      "type": "event"
    },
    {
      "anonymous": false,
      "inputs": [
        {
          "indexed": false,
          "internalType": "uint256",
          "name": "orderId",
          "type": "uint256"
        },
        {
          "indexed": false,
          "internalType": "uint256",
          "name": "shippedTime",
          "type": "uint256"
        }
      ],
      "name": "OrderShipped",
      "type": "event"
    },
    {
      "anonymous": false,
      "inputs": [
        {
          "indexed": false,
          "internalType": "uint256",
          "name": "orderId",
          "type": "uint256"
        },
        {
          "indexed": false,
          "internalType": "uint256",
          "name": "amount",
          "type": "uint256"
        }
      ],
      "name": "PaymentReleased",
      "type": "event"
    },
    {
      "inputs": [],
      "name": "DELIVERY_PERIOD",
      "outputs": [
        {
          "internalType": "uint256",
          "name": "",
          "type": "uint256"
        }
      ],
      "stateMutability": "view",
      "type": "function"
    },
    {
      "inputs": [
        {
          "internalType": "uint256",
          "name": "_orderId",
          "type": "uint256"
        }
      ],
      "name": "cancelOrder",
      "outputs": [],
      "stateMutability": "nonpayable",
      "type": "function"
    },
    {
      "inputs": [
        {
          "internalType": "uint256",
          "name": "_orderId",
          "type": "uint256"
        }
      ],
      "name": "confirmDelivery",
      "outputs": [],
      "stateMutability": "nonpayable",
      "type": "function"
    },
    {
      "inputs": [
        {
          "internalType": "uint256",
          "name": "_orderId",
          "type": "uint256"
        }
      ],
      "name": "confirmShipment",
      "outputs": [],
      "stateMutability": "nonpayable",
      "type": "function"
    },
    {
      "inputs": [
        {
          "internalType": "address payable",
          "name": "_producer",
          "type": "address"
        },
        {
          "internalType": "uint256",
          "name": "_productId",
          "type": "uint256"
        },
        {
          "internalType": "string",
          "name": "_productName",
          "type": "string"
        },
        {
          "internalType": "uint256",
          "name": "_productPrice",
          "type": "uint256"
        }
      ],
      "name": "createOrder",
      "outputs": [],
      "stateMutability": "payable",
      "type": "function"
    },
    {
      "inputs": [
        {
          "internalType": "uint256",
          "name": "_orderId",
          "type": "uint256"
        }
      ],
      "name": "getOrderDetails",
      "outputs": [
        {
          "internalType": "address",
          "name": "consumer",
          "type": "address"
        },
        {
          "internalType": "address",
          "name": "producer",
          "type": "address"
        },
        {
          "internalType": "uint256",
          "name": "productId",
          "type": "uint256"
        },
        {
          "internalType": "string",
          "name": "productName",
          "type": "string"
        },
        {
          "internalType": "uint256",
          "name": "productPrice",
          "type": "uint256"
        },
        {
          "internalType": "uint256",
          "name": "purchaseTime",
          "type": "uint256"
        },
        {
          "internalType": "uint256",
          "name": "deliveryTime",
          "type": "uint256"
        },
        {
          "internalType": "enum EcommerceDelivery.OrderStatus",
          "name": "status",
          "type": "uint8"
        }
      ],
      "stateMutability": "view",
      "type": "function"
    },
    {
      "inputs": [
        {
          "internalType": "uint256",
          "name": "_orderId",
          "type": "uint256"
        }
      ],
      "name": "isDeliveryOnTime",
      "outputs": [
        {
          "internalType": "bool",
          "name": "",
          "type": "bool"
        }
      ],
      "stateMutability": "view",
      "type": "function"
    },
    {
      "inputs": [],
      "name": "orderCount",
      "outputs": [
        {
          "internalType": "uint256",
          "name": "",
          "type": "uint256"
        }
      ],
      "stateMutability": "view",
      "type": "function"
    },
    {
      "inputs": [
        {
          "internalType": "uint256",
          "name": "",
          "type": "uint256"
        }
      ],
      "name": "orders",
      "outputs": [
        {
          "internalType": "address payable",
          "name": "consumer",
          "type": "address"
        },
        {
          "internalType": "address payable",
          "name": "producer",
          "type": "address"
        },
        {
          "internalType": "uint256",
          "name": "productId",
          "type": "uint256"
        },
        {
          "internalType": "string",
          "name": "productName",
          "type": "string"
        },
        {
          "internalType": "uint256",
          "name": "productPrice",
          "type": "uint256"
        },
        {
          "internalType": "uint256",
          "name": "purchaseTime",
          "type": "uint256"
        },
        {
          "internalType": "uint256",
          "name": "deliveryTime",
          "type": "uint256"
        },
        {
          "internalType": "enum EcommerceDelivery.OrderStatus",
          "name": "status",
          "type": "uint8"
        },
        {
          "internalType": "bool",
          "name": "consumerConfirmedDelivery",
          "type": "bool"
        },
        {
          "internalType": "bool",
          "name": "producerConfirmedShipment",
          "type": "bool"
        }
      ],
      "stateMutability": "view",
      "type": "function"
    },
    {
      "inputs": [
        {
          "internalType": "uint256",
          "name": "_orderId",
          "type": "uint256"
        },
        {
          "internalType": "uint256",
          "name": "_deliveryTime",
          "type": "uint256"
        }
      ],
      "name": "specifyDeliveryDate",
      "outputs": [],
      "stateMutability": "nonpayable",
      "type": "function"
    }
  ],
  "bytecode": "0x608060405234801561001057600080fd5b50612268806100206000396000f3fe6080604052600436106100915760003560e01c8063caa1bac611610059578063caa1bac614610177578063e0cb8e5f146101a0578063ec7dd7bb146101c9578063f86313411461020d578063fd84cb971461024a57610091565b80632453ffa814610096578063514fcac7146100c157806371535ec1146100ea5780639b119dfa14610115578063a85c38ef14610131575b600080fd5b3480156100a257600080fd5b506100ab610273565b6040516100b891906111c5565b60405180910390f35b3480156100cd57600080fd5b506100e860048036038101906100e39190611220565b610279565b005b3480156100f657600080fd5b506100ff610470565b60405161010c91906111c5565b60405180910390f35b61012f600480360381019061012a91906113f1565b610477565b005b34801561013d57600080fd5b5061015860048036038101906101539190611220565b610768565b60405161016e9a99989796959493929190611594565b60405180910390f35b34801561018357600080fd5b5061019e60048036038101906101999190611637565b6108ab565b005b3480156101ac57600080fd5b506101c760048036038101906101c29190611220565b610a94565b005b3480156101d557600080fd5b506101f060048036038101906101eb9190611220565b610c3b565b604051610204989796959493929190611698565b60405180910390f35b34801561021957600080fd5b50610234600480360381019061022f9190611220565b610d7a565b604051610241919061171d565b60405180910390f35b34801561025657600080fd5b50610271600480360381019061026c9190611220565b610dca565b005b60015481565b600080600083815260200190815260200160002090508060000160009054906101000a900473ffffffffffffffffffffffffffffffffffffffff1673ffffffffffffffffffffffffffffffffffffffff163373ffffffffffffffffffffffffffffffffffffffff1614610321576040517f08c379a0000000000000000000000000000000000000000000000000000000008152600401610318906117aa565b60405180910390fd5b6000600481111561033557610334611502565b5b8160070160009054906101000a900460ff16600481111561035957610358611502565b5b14610399576040517f08c379a00000000000000000000000000000000000000000000000000000000081526004016103909061183c565b60405180910390fd5b60048160070160006101000a81548160ff021916908360048111156103c1576103c0611502565b5b02179055508060000160009054906101000a900473ffffffffffffffffffffffffffffffffffffffff1673ffffffffffffffffffffffffffffffffffffffff166108fc82600401549081150290604051600060405180830381858888f19350505050158015610434573d6000803e3d6000fd5b507f61b9399f2f0f32ca39ce8d7be32caed5ec22fe07a6daba3a467ed479ec6065828260405161046491906111c5565b60405180910390a15050565b6202a30081565b8034146104b9576040517f08c379a00000000000000000000000000000000000000000000000000000000081526004016104b0906118ce565b60405180910390fd5b600073ffffffffffffffffffffffffffffffffffffffff168473ffffffffffffffffffffffffffffffffffffffff1603610528576040517f08c379a000000000000000000000000000000000000000000000000000000000815260040161051f9061193a565b60405180910390fd5b60006001600081548092919061053d90611989565b9190505590506040518061014001604052803373ffffffffffffffffffffffffffffffffffffffff1681526020018673ffffffffffffffffffffffffffffffffffffffff16815260200185815260200184815260200183815260200142815260200160008152602001600060048111156105ba576105b9611502565b5b81526020016000151581526020016000151581525060008083815260200190815260200160002060008201518160000160006101000a81548173ffffffffffffffffffffffffffffffffffffffff021916908373ffffffffffffffffffffffffffffffffffffffff16021790555060208201518160010160006101000a81548173ffffffffffffffffffffffffffffffffffffffff021916908373ffffffffffffffffffffffffffffffffffffffff16021790555060408201518160020155606082015181600301908161068e9190611bdd565b506080820151816004015560a0820151816005015560c0820151816006015560e08201518160070160006101000a81548160ff021916908360048111156106d8576106d7611502565b5b02179055506101008201518160070160016101000a81548160ff0219169083151502179055506101208201518160070160026101000a81548160ff0219169083151502179055509050507f5f88d55333195757ca319aa0ac617520059267f8245f2067982a6caaf6916b818133878742604051610759959493929190611d04565b60405180910390a15050505050565b60006020528060005260406000206000915090508060000160009054906101000a900473ffffffffffffffffffffffffffffffffffffffff16908060010160009054906101000a900473ffffffffffffffffffffffffffffffffffffffff16908060020154908060030180546107dd90611a00565b80601f016020809104026020016040519081016040528092919081815260200182805461080990611a00565b80156108565780601f1061082b57610100808354040283529160200191610856565b820191906000526020600020905b81548152906001019060200180831161083957829003601f168201915b5050505050908060040154908060050154908060060154908060070160009054906101000a900460ff16908060070160019054906101000a900460ff16908060070160029054906101000a900460ff1690508a565b600080600084815260200190815260200160002090508060000160009054906101000a900473ffffffffffffffffffffffffffffffffffffffff1673ffffffffffffffffffffffffffffffffffffffff163373ffffffffffffffffffffffffffffffffffffffff1614610953576040517f08c379a000000000000000000000000000000000000000000000000000000000815260040161094a90611dc9565b60405180910390fd5b6000600481111561096757610966611502565b5b8160070160009054906101000a900460ff16600481111561098b5761098a611502565b5b14806109cc5750600160048111156109a6576109a5611502565b5b8160070160009054906101000a900460ff1660048111156109ca576109c9611502565b5b145b610a0b576040517f08c379a0000000000000000000000000000000000000000000000000000000008152600401610a0290611e5b565b60405180910390fd5b428211610a4d576040517f08c379a0000000000000000000000000000000000000000000000000000000008152600401610a4490611eed565b60405180910390fd5b8181600601819055507ff7e71369e74c432cce1a2e4ca2c82a0d16c112c28dbc39bf608099faae30c4a58383604051610a87929190611f0d565b60405180910390a1505050565b600080600083815260200190815260200160002090508060010160009054906101000a900473ffffffffffffffffffffffffffffffffffffffff1673ffffffffffffffffffffffffffffffffffffffff163373ffffffffffffffffffffffffffffffffffffffff1614610b3c576040517f08c379a0000000000000000000000000000000000000000000000000000000008152600401610b3390611fa8565b60405180910390fd5b60006004811115610b5057610b4f611502565b5b8160070160009054906101000a900460ff166004811115610b7457610b73611502565b5b14610bb4576040517f08c379a0000000000000000000000000000000000000000000000000000000008152600401610bab90612014565b60405180910390fd5b60018160070160026101000a81548160ff02191690831515021790555060018160070160006101000a81548160ff02191690836004811115610bf957610bf8611502565b5b02179055507fd293cce49277a4dadc0edc7a4a30f89cb1d3bffcf9f52380f4f52525243ad7f98242604051610c2f929190611f0d565b60405180910390a15050565b6000806000606060008060008060008060008b815260200190815260200160002090508060000160009054906101000a900473ffffffffffffffffffffffffffffffffffffffff168160010160009054906101000a900473ffffffffffffffffffffffffffffffffffffffff168260020154836003018460040154856005015486600601548760070160009054906101000a900460ff16848054610cde90611a00565b80601f0160208091040260200160405190810160405280929190818152602001828054610d0a90611a00565b8015610d575780601f10610d2c57610100808354040283529160200191610d57565b820191906000526020600020905b815481529060010190602001808311610d3a57829003601f168201915b505050505094509850985098509850985098509850985050919395975091939597565b60008060008084815260200190815260200160002090506000816006015403610da7576000915050610dc5565b6202a30081600501548260060154610dbf9190612034565b11159150505b919050565b600080600083815260200190815260200160002090508060000160009054906101000a900473ffffffffffffffffffffffffffffffffffffffff1673ffffffffffffffffffffffffffffffffffffffff163373ffffffffffffffffffffffffffffffffffffffff1614610e72576040517f08c379a0000000000000000000000000000000000000000000000000000000008152600401610e69906120da565b60405180910390fd5b60016004811115610e8657610e85611502565b5b8160070160009054906101000a900460ff166004811115610eaa57610ea9611502565b5b14610eea576040517f08c379a0000000000000000000000000000000000000000000000000000000008152600401610ee190612146565b60405180910390fd5b60018160070160016101000a81548160ff02191690831515021790555042816006018190555060028160070160006101000a81548160ff02191690836004811115610f3857610f37611502565b5b02179055507fa8f4a4becaccbb7e9fbfe98b251c48404ddd08ad44e331d6cb7698af92e542708242604051610f6e929190611f0d565b60405180910390a1610f7f82610f83565b5050565b6000806000838152602001908152602001600020905060026004811115610fad57610fac611502565b5b8160070160009054906101000a900460ff166004811115610fd157610fd0611502565b5b14611011576040517f08c379a0000000000000000000000000000000000000000000000000000000008152600401611008906121b2565b60405180910390fd5b6000816005015482600601546110279190612034565b905060006202a300821161104157826004015490506110d5565b600283600401546110529190612201565b905060008184600401546110669190612034565b90508360000160009054906101000a900473ffffffffffffffffffffffffffffffffffffffff1673ffffffffffffffffffffffffffffffffffffffff166108fc829081150290604051600060405180830381858888f193505050501580156110d2573d6000803e3d6000fd5b50505b8260010160009054906101000a900473ffffffffffffffffffffffffffffffffffffffff1673ffffffffffffffffffffffffffffffffffffffff166108fc829081150290604051600060405180830381858888f1935050505015801561113f573d6000803e3d6000fd5b5060038360070160006101000a81548160ff0219169083600481111561116857611167611502565b5b02179055507fc8ef479acdbffd729d96117b951d1c3ee85d98ef42699aec806bc4f0b522461d848260405161119e929190611f0d565b60405180910390a150505050565b6000819050919050565b6111bf816111ac565b82525050565b60006020820190506111da60008301846111b6565b92915050565b6000604051905090565b600080fd5b600080fd5b6111fd816111ac565b811461120857600080fd5b50565b60008135905061121a816111f4565b92915050565b600060208284031215611236576112356111ea565b5b60006112448482850161120b565b91505092915050565b600073ffffffffffffffffffffffffffffffffffffffff82169050919050565b60006112788261124d565b9050919050565b6112888161126d565b811461129357600080fd5b50565b6000813590506112a58161127f565b92915050565b600080fd5b600080fd5b6000601f19601f8301169050919050565b7f4e487b7100000000000000000000000000000000000000000000000000000000600052604160045260246000fd5b6112fe826112b5565b810181811067ffffffffffffffff8211171561131d5761131c6112c6565b5b80604052505050565b60006113306111e0565b905061133c82826112f5565b919050565b600067ffffffffffffffff82111561135c5761135b6112c6565b5b611365826112b5565b9050602081019050919050565b82818337600083830152505050565b600061139461138f84611341565b611326565b9050828152602081018484840111156113b0576113af6112b0565b5b6113bb848285611372565b509392505050565b600082601f8301126113d8576113d76112ab565b5b81356113e8848260208601611381565b91505092915050565b6000806000806080858703121561140b5761140a6111ea565b5b600061141987828801611296565b945050602061142a8782880161120b565b935050604085013567ffffffffffffffff81111561144b5761144a6111ef565b5b611457878288016113c3565b92505060606114688782880161120b565b91505092959194509250565b61147d8161126d565b82525050565b600081519050919050565b600082825260208201905092915050565b60005b838110156114bd5780820151818401526020810190506114a2565b60008484015250505050565b60006114d482611483565b6114de818561148e565b93506114ee81856020860161149f565b6114f7816112b5565b840191505092915050565b7f4e487b7100000000000000000000000000000000000000000000000000000000600052602160045260246000fd5b6005811061154257611541611502565b5b50565b600081905061155382611531565b919050565b600061156382611545565b9050919050565b61157381611558565b82525050565b60008115159050919050565b61158e81611579565b82525050565b6000610140820190506115aa600083018d611474565b6115b7602083018c611474565b6115c4604083018b6111b6565b81810360608301526115d6818a6114c9565b90506115e560808301896111b6565b6115f260a08301886111b6565b6115ff60c08301876111b6565b61160c60e083018661156a565b61161a610100830185611585565b611628610120830184611585565b9b9a5050505050505050505050565b6000806040838503121561164e5761164d6111ea565b5b600061165c8582860161120b565b925050602061166d8582860161120b565b9150509250929050565b60006116828261124d565b9050919050565b61169281611677565b82525050565b6000610100820190506116ae600083018b611689565b6116bb602083018a611689565b6116c860408301896111b6565b81810360608301526116da81886114c9565b90506116e960808301876111b6565b6116f660a08301866111b6565b61170360c08301856111b6565b61171060e083018461156a565b9998505050505050505050565b60006020820190506117326000830184611585565b92915050565b7f4f6e6c792074686520636f6e73756d65722063616e2063616e63656c2074686560008201527f206f726465720000000000000000000000000000000000000000000000000000602082015250565b600061179460268361148e565b915061179f82611738565b604082019050919050565b600060208201905081810360008301526117c381611787565b9050919050565b7f4f726465722063616e206f6e6c792062652063616e63656c6c6564206265666f60008201527f7265207368697070696e67000000000000000000000000000000000000000000602082015250565b6000611826602b8361148e565b9150611831826117ca565b604082019050919050565b6000602082019050818103600083015261185581611819565b9050919050565b7f5061796d656e74206d757374206d61746368207468652070726f64756374207060008201527f7269636500000000000000000000000000000000000000000000000000000000602082015250565b60006118b860248361148e565b91506118c38261185c565b604082019050919050565b600060208201905081810360008301526118e7816118ab565b9050919050565b7f496e76616c69642070726f647563657220616464726573730000000000000000600082015250565b600061192460188361148e565b915061192f826118ee565b602082019050919050565b6000602082019050818103600083015261195381611917565b9050919050565b7f4e487b7100000000000000000000000000000000000000000000000000000000600052601160045260246000fd5b6000611994826111ac565b91507fffffffffffffffffffffffffffffffffffffffffffffffffffffffffffffffff82036119c6576119c561195a565b5b600182019050919050565b7f4e487b7100000000000000000000000000000000000000000000000000000000600052602260045260246000fd5b60006002820490506001821680611a1857607f821691505b602082108103611a2b57611a2a6119d1565b5b50919050565b60008190508160005260206000209050919050565b60006020601f8301049050919050565b600082821b905092915050565b600060088302611a937fffffffffffffffffffffffffffffffffffffffffffffffffffffffffffffffff82611a56565b611a9d8683611a56565b95508019841693508086168417925050509392505050565b6000819050919050565b6000611ada611ad5611ad0846111ac565b611ab5565b6111ac565b9050919050565b6000819050919050565b611af483611abf565b611b08611b0082611ae1565b848454611a63565b825550505050565b600090565b611b1d611b10565b611b28818484611aeb565b505050565b5b81811015611b4c57611b41600082611b15565b600181019050611b2e565b5050565b601f821115611b9157611b6281611a31565b611b6b84611a46565b81016020851015611b7a578190505b611b8e611b8685611a46565b830182611b2d565b50505b505050565b600082821c905092915050565b6000611bb460001984600802611b96565b1980831691505092915050565b6000611bcd8383611ba3565b9150826002028217905092915050565b611be682611483565b67ffffffffffffffff811115611bff57611bfe6112c6565b5b611c098254611a00565b611c14828285611b50565b600060209050601f831160018114611c475760008415611c35578287015190505b611c3f8582611bc1565b865550611ca7565b601f198416611c5586611a31565b60005b82811015611c7d57848901518255600182019150602085019450602081019050611c58565b86831015611c9a5784890151611c96601f891682611ba3565b8355505b6001600288020188555050505b505050505050565b6000611cca611cc5611cc08461124d565b611ab5565b61124d565b9050919050565b6000611cdc82611caf565b9050919050565b6000611cee82611cd1565b9050919050565b611cfe81611ce3565b82525050565b600060a082019050611d1960008301886111b6565b611d266020830187611689565b611d336040830186611cf5565b611d4060608301856111b6565b611d4d60808301846111b6565b9695505050505050565b7f4f6e6c792074686520636f6e73756d65722063616e207370656369667920746860008201527f652064656c697665727920646174650000000000000000000000000000000000602082015250565b6000611db3602f8361148e565b9150611dbe82611d57565b604082019050919050565b60006020820190508181036000830152611de281611da6565b9050919050565b7f4f72646572206d75737420626520696e2063726561746564206f72207368697060008201527f7065642073746174650000000000000000000000000000000000000000000000602082015250565b6000611e4560298361148e565b9150611e5082611de9565b604082019050919050565b60006020820190508181036000830152611e7481611e38565b9050919050565b7f44656c69766572792074696d65206d75737420626520696e207468652066757460008201527f7572650000000000000000000000000000000000000000000000000000000000602082015250565b6000611ed760238361148e565b9150611ee282611e7b565b604082019050919050565b60006020820190508181036000830152611f0681611eca565b9050919050565b6000604082019050611f2260008301856111b6565b611f2f60208301846111b6565b9392505050565b7f4f6e6c79207468652070726f64756365722063616e20636f6e6669726d20736860008201527f69706d656e740000000000000000000000000000000000000000000000000000602082015250565b6000611f9260268361148e565b9150611f9d82611f36565b604082019050919050565b60006020820190508181036000830152611fc181611f85565b9050919050565b7f4f72646572206973206e6f7420696e2063726561746564207374617465000000600082015250565b6000611ffe601d8361148e565b915061200982611fc8565b602082019050919050565b6000602082019050818103600083015261202d81611ff1565b9050919050565b600061203f826111ac565b915061204a836111ac565b92508282039050818111156120625761206161195a565b5b92915050565b7f4f6e6c792074686520636f6e73756d65722063616e20636f6e6669726d20646560008201527f6c69766572790000000000000000000000000000000000000000000000000000602082015250565b60006120c460268361148e565b91506120cf82612068565b604082019050919050565b600060208201905081810360008301526120f3816120b7565b9050919050565b7f4f72646572206d75737420626520736869707065642066697273740000000000600082015250565b6000612130601b8361148e565b915061213b826120fa565b602082019050919050565b6000602082019050818103600083015261215f81612123565b9050919050565b7f4f72646572206d75737420626520696e2064656c697665726564207374617465600082015250565b600061219c60208361148e565b91506121a782612166565b602082019050919050565b600060208201905081810360008301526121cb8161218f565b9050919050565b7f4e487b7100000000000000000000000000000000000000000000000000000000600052601260045260246000fd5b600061220c826111ac565b9150612217836111ac565b925082612227576122266121d2565b5b82820490509291505056fea264697066735822122084e5e6933d0db9abd2087564daab29c7d22673253dab9ee67b48d9b77622179f64736f6c63430008130033",
  "linkReferences": {},
  "deployedLinkReferences": {}
}